{
    "contractName": "SimpleStorage",
    "abi": [
        {
            "inputs": [
                {
                    "internalType": "uint256",
                    "name": "_a",
                    "type": "uint256"
                }
            ],
            "name": "setter",
            "outputs": [],
            "stateMutability": "nonpayable",
            "type": "function"
        },
        {
            "inputs": [
                {
                    "internalType": "uint256",
                    "name": "_b",
                    "type": "uint256"
                }
            ],
            "name": "setter1",
            "outputs": [],
            "stateMutability": "nonpayable",
            "type": "function"
        },
        {
            "inputs": [
                {
                    "internalType": "uint256",
                    "name": "_c",
                    "type": "uint256"
                }
            ],
            "name": "setter2",
            "outputs": [],
            "stateMutability": "nonpayable",
            "type": "function"
        },
        {
            "inputs": [],
            "name": "getter",
            "outputs": [
                {
                    "internalType": "uint256",
                    "name": "",
                    "type": "uint256"
                }
            ],
            "stateMutability": "view",
            "type": "function",
            "constant": true
        },
        {
            "inputs": [],
            "name": "getter1",
            "outputs": [
                {
                    "internalType": "uint256",
                    "name": "",
                    "type": "uint256"
                }
            ],
            "stateMutability": "view",
            "type": "function",
            "constant": true
        },
        {
            "inputs": [],
            "name": "getter2",
            "outputs": [
                {
                    "internalType": "uint256",
                    "name": "",
                    "type": "uint256"
                }
            ],
            "stateMutability": "view",
            "type": "function",
            "constant": true
        }
    ],
    "bytecode": "0x608060405234801561001057600080fd5b50610218806100206000396000f3fe608060405234801561001057600080fd5b50600436106100625760003560e01c80630423ee8314610067578063053fd233146100835780630ec1632e1461009f578063993a04b7146100bd578063d423740b146100db578063e255e5f9146100f7575b600080fd5b610081600480360381019061007c919061018b565b610115565b005b61009d6004803603810190610098919061018b565b61011f565b005b6100a7610129565b6040516100b491906101c7565b60405180910390f35b6100c5610133565b6040516100d291906101c7565b60405180910390f35b6100f560048036038101906100f0919061018b565b61013c565b005b6100ff610146565b60405161010c91906101c7565b60405180910390f35b8060018190555050565b8060028190555050565b6000600154905090565b60008054905090565b8060008190555050565b6000600254905090565b600080fd5b6000819050919050565b61016881610155565b811461017357600080fd5b50565b6000813590506101858161015f565b92915050565b6000602082840312156101a1576101a0610150565b5b60006101af84828501610176565b91505092915050565b6101c181610155565b82525050565b60006020820190506101dc60008301846101b8565b9291505056fea26469706673582212206379623884714422eb9cdbfdd1f8d8884004061589640e9a79c6e8b74303c6df64736f6c63430008110033",
    "immutableReferences": {},
    "source": "// SPDX-License-Identifier: MIT\r\npragma solidity >=0.5.0 <0.9.0;\r\n\r\ncontract SimpleStorage {\r\n    uint256 a;\r\n    uint256 b;\r\n    uint256 c;\r\n    \r\n    function setter(uint256 _a) public {\r\n        a = _a;\r\n    }\r\n    function setter1(uint256 _b) public {\r\n        b = _b;\r\n    }\r\n    function setter2(uint256 _c) public {\r\n        c = _c;\r\n    }\r\n\r\n    function getter() public view returns (uint256) {\r\n        return a;\r\n    }\r\n    function getter1() public view returns (uint256) {\r\n        return b;\r\n    }\r\n    function getter2() public view returns (uint256) {\r\n        return c;\r\n    }\r\n}",
    "sourcePath": "C:\\Users\\Balu Chitturi\\Downloads\\truffleTutorialEng-main (1)\\truffleTutorialEng-main\\contracts\\SimpleStorage.sol",
    "compiler": {
        "name": "solc",
        "version": "0.8.17+commit.8df45f5f.Emscripten.clang"
    },
    "schemaVersion": "3.4.16",
    "updatedAt": "2024-02-13T15:38:59.411Z",
    "networkType": "ethereum",
    "devdoc": {
        "kind": "dev",
        "methods": {},
        "version": 1
    },
    "userdoc": {
        "kind": "user",
        "methods": {},
        "version": 1
    }
}